:100000000C948E020C94C6020C94C6020C94C60288
:100010000C94C6020C94C6020C94C6020C94C60240
:100020000C94C6020C94C6020C9440260C9414271F
:100030000C945C210C94C6020C94C6020C94C6026B
:100040000C94C6020C94C6020C94C6020C94C60210
:100050000C94C6020C94E3210C94C6020C94C602C4
:100060000C94C6020C94C6020C94C6020C94C602F0
:100070000C94C6020C94C6020C94C6020C94C602E0
:100080000C94C6020C94C6020C94C6020C94C602D0
:100090000C94C6020C94C6020C94C6020C94C602C0
:1000A0000C94C6020C94C6020C94C6021E001F00DB
:1000B0002000210022002A00A5003900A8004400E9
:1000C0002300240025002600270014001A00080041
:1000D000150017004C004B004600A90031001C0021
:1000E00018000C001200130004001600070009009D
:1000F0000A002D004E00AE00AA002E000B000D00DD
:100100000E000F0033001D001B0006001900050043
:100110002B004A0052004D002A001100100036004A
:100120003700380029412C00E300E100E000E20044
:10013000500051004F00353428412C0034002F313D
:1001400030323F0040004100420043000100010006
:1001500001000100010001000100037C027C007C21
:1001600045004A0052004D004B0001000100010013
:100170000100010001000100010001000100440034
:10018000500051004F004E0001000100010001002D
:100190000100010021782778237825783A003B0078
:1001A0003C003D003E000100010001000100010093
:1001B0002078227828782478267801000100010030
:1001C0000100010001000100010001000100010027
:1001D00001000100010001001E0F0500047F3F1F08
:1001E000643214643214783C1E1E140A052223253E
:1001F0002628292A2C2D2F3032333536383A3B3DEC
:100200003E4042434547494A4C4E50515355575939
:100210005A5C5E6062646668696B6D6F7173757756
:10022000797B7D7F81838587898A8C8E9092949655
:10023000989A9C9E9FA1A3A5A7A8AAACAEAFB1B364
:10024000B4B6B8B9BBBCBEBFC1C2C3C5C6C7C9CAB4
:10025000CBCCCDCED0D1D2D2D3D4D5D6D7D7D8D976
:10026000D9DADADBDBDBDCDCDCDCDCDDDDDDDDDCD4
:10027000DCDCDCDCDBDBDBDADAD9D9D8D7D7D6D5E6
:10028000D4D3D2D2D1D0CECDCCCBCAC9C7C6C5C3A8
:10029000C2C1BFBEBCBBB9B8B6B4B3B1AFAEACAAF5
:1002A000A8A7A5A3A19F9E9C9A98969492908E8CA5
:1002B0008A89878583817F7D7B79777573716F6D7F
:1002C0006B6968666462605E5C5A59575553515059
:1002D0004E4C4A4947454342403E3D3B3A3836350D
:1002E0003332302F2D2C2A292826252322FFAA7FBE
:1002F0005540000101010101010101010202020258
:1003000002020202020303030303030303040404BF
:100310000404040405050505050606060606070788
:1003200007070708080808090909090A0A0A0B0B40
:100330000B0C0C0C0D0D0D0E0E0E0F0F0F101011DF
:100340001111121213131414151516161717181865
:1003500019191A1A1B1B1C1D1D1E1E1F20202122CD
:1003600022232424252626272829292A2B2C2D2D13
:100370002E2F30313232333435363738393A3B3C30
:100380003D3E3F404142434445464748494A4C4D23
:100390004E4F50515354555658595A5B5D5E5F61EC
:1003A0006264656668696B6C6D6F7072737577787F
:1003B0007A7B7D7E8082838587888A8C8E8F9193DD
:1003C0009596989A9C9EA0A2A3A5A7A9ABADAFB104
:1003D000B3B5B7BABCBEC0C2C4C6C9CBCDCFD1D4E9
:1003E000D6D8DBDDDFE2E4E7E9EBEEF0F3F5F8FA8F
:1003F000FDFF0A03580044003700350000000C03DD
:1004000078006900750064006900000004030904B5
:1004100009023B00020100A0FA09040000010301E7
:100420000100092111010001224400070581030890
:10043000000109040100010300000009211101006D
:1004400001227B0007058203200001120100020047
:1004500000000844787575010001020001050109DA
:1004600002A10185020901A1000509190129081548
:100470000025019508750181020501093009311532
:1004800081257F95027508810609381581257F959C
:100490000175088106050C0A38021581257F950132
:1004A00075088106C0C005010980A10185031901F5
:1004B0002AB700150126B700950175108100C00507
:1004C0000C0901A101850419012AA002150126A029
:1004D00002950175108100C005010906A1010507FB
:1004E00019E029E71500250195087501810295019C
:1004F000750881010507190029FF150026FF0095E1
:1005000006750881000508190129051500250195C2
:100510000575019102950175039101C011241FBE5B
:10052000CFEFDAE0DEBFCDBF04B603FE18C0809186
:10053000160390911703A0911803B0911903873007
:10054000904BA740B04B59F410921603109217032A
:100550001092180310921903E0E0F8E3099511E0F6
:10056000A0E0B1E0EEE1F6E502C005900D92A23EFA
:10057000B107D9F723E0A2EEB1E001C01D92A63188
:10058000B207E1F70E9454120C94B92A0C940000AF
:100590002A9A0895229A0E94C80208958F9A08956F
:1005A000879A0E94CE0208958C980895849A0E949A
:1005B000D40208950E94CA020E94D0020E94D6026C
:1005C0000E94061108958230B8F46530A8F44F30C7
:1005D00098F450E09FE0699F400D511D1124FA01ED
:1005E0009BE4899FE00DF11D1124EE0FFF1FE455E0
:1005F000FF4F85919491089581E090E008950E94C5
:10060000E302089581E008950E940203089581E0C5
:1006100008950E94020308950E9409030895089511
:100620000E940F030895A6E0B0E0E9E1F3E00C9426
:10063000652949835A839E833091E90189819A8192
:1006400031111AC03E81332399F0222389F00E9490
:100650001E09182F682F89819A810E94FA086981E2
:100660007A81812F0E9402102696E3E00C94812962
:100670000E940C09182FF3CF0E941E0969817A810C
:10068000F1CFFC01262F40815181628173818481E9
:1006900095810E9413030895CF93DF93EC0161E0ED
:1006A0000E944103BE010E940403DF91CF9108958F
:1006B000CF93DF93EC0160E00E944103BE010E94F2
:1006C0001003DF91CF91089581E008950E946403A3
:1006D0000895CF93C82F0E94CF078C2F0E946603E6
:1006E0002FEF84E39CE0215080409040E1F700C070
:1006F0000000CF91089581E00E9469030E940722C3
:10070000089580E00E9469030E942B2208950F93B0
:100710001F93CF93DF938C0161E00E944103EC01B2
:10072000F801858181110E94A919B801CE010E94AA
:100730000C03811106C080E0DF91CF911F910F91D2
:100740000895B801CE010E94C21F8823A1F3B80109
:10075000CE010E94FE1B882371F3B801CE010E94D6
:10076000D41B882341F3B801CE010E94C819882305
:1007700011F3F8018581882361F0C330FCE7DF07BE
:10078000E9F058F4C115ECE7DE07A9F0C130DC4709
:10079000B9F0C8010E940703CFCFCB358CE7D8074B
:1007A000A9F0CC35ECE7DE0771F0CA35DC4789F7F4
:1007B0000E94350DEECF0E947B03BDCF0E943D0D00
:1007C0000E948103B8CF0E942B0DE3CF0E94390D08
:1007D000E0CF0E9438210E94090408950E940D0470
:1007E0000E943D21089581E008950895CF93DF93FD
:1007F000D82F0E94F303C82F882319F08D2F0E9451
:10080000F5038C2FDF91CF91089508950E94F60390
:10081000089580E00E94060408950E940B200E9423
:1008200006040895CF930E940B20C82F8091E40105
:100830008C1779F0C093E4010E94C8216093E50110
:100840007093E6018093E7019093E8018C2F0E945A
:100850000604CF910895ADE0B0E0E1E3F4E00C943C
:100860006629488759876A877B878C879D8791117E
:100870000E946B0C1F8286E0FE013896DE01119605
:1008800001900D928A95E1F78D8181110DC029812A
:100890003A814B815C816D817E818F810E94B50B95
:1008A0002D96E2E00C948229CE0101960E944C0321
:1008B0008111EDCFF5CFFC012481213021F480811D
:1008C00091810E9450090895662329F00E945F1DBE
:1008D0000E94321E08950E94B91DFACFCF93C82FEF
:1008E0008823C9F08238C9F40E94182081FD13C002
:1008F00089E30E94CE200E94DA0C2FEF87EE93E06E
:10090000215080409040E1F700C0000089E30E9440
:10091000D6200E94DA0CCF9108958338A1F40E946A
:10092000182080FDF8CF83E50E94CE200E94DA0CCB
:100930002FEF81EE94E0215080409040E1F700C01D
:10094000000083E5E4CF8438A1F40E94182082FDE2
:10095000E2CF87E40E94CE200E94DA0C2FEF81EED6
:1009600094E0215080409040E1F700C0000087E40F
:10097000CECF8CEF8C0F813A98F48C2F0E94191BEC
:100980008111C9CF8C2F0E949320882329F08C2FAE
:100990000E94D6200E94DA0C8C2F0E94CE20B9CF64
:1009A00080E28C0F883048F4C77081E001C0880F66
:1009B000CA95EAF70E944E0CACCFEBE5EC0FE330A2
:1009C00040F4F0E0EE59FE4F808190E00E94342028
:1009D000A2CFE8E5EC0FEB3150F4F0E0EE0FFF1F93
:1009E000E45DFE4F808191810E94592094CF83E382
:1009F0008C0F833108F08FCF61E08C2F0E9464044C
:100A00008ACF882309F456C0823879F40E941820CE
:100A100081FF50C089E30E94CE200E94DA0C89E356
:100A20000E94D6200E94DA0C0895833859F40E945F
:100A3000182080FF3FC083E50E94CE200E94DA0C80
:100A400083E5EECF843859F40E94182082FF32C02B
:100A500087E40E94CE200E94DA0C87E4E1CF9CEF6D
:100A6000980F913AE8F290E2980F983050F487701E
:100A700091E001C0990F8A95EAF7892F0E94540CE2
:100A8000D1CF9BE5980F933028F490E080E00E944E
:100A90003420089598E5980F9B3128F490E080E089
:100AA0000E945920089593E3980F933118F460E061
:100AB0000E94640408951F93CF93DF93182FEB01D6
:100AC0000E946E04209739F4812F0E940105DF9166
:100AD000CF911F9108958FE99FE00197F1F700C032
:100AE00000002197EFCF70E060E0893311F460E5FA
:100AF00070E00E945B050895882321F00E944E0C4F
:100B00000E94DA0C0895882321F00E94540C0E9460
:100B1000DA0C0895B0E0A0E0E0E9F5E00C945F297C
:100B20006C01D62FC72FFC011581068102950F702D
:100B30000E94440CE82E8823F9F0E12E1123E1F005
:100B40008C2F807F803461F080E28D0F883008F137
:100B50008C2F807E803221F4D230D8F00023C9F06F
:100B60008091D60282FF15C082E00E94FF0C0E9495
:100B7000440C91E0E82EE926BC2EB2949FE0B92205
:100B8000FBE0FB15B8F1EB2DF0E0E554F54D0C94CE
:100B90001F29E12CF1CF0C2F0F70C07F11F00295AF
:100BA000007F112399F0002359F080E28D0F8830E7
:100BB00010F0D11107C0802F0E944E0C0E94DA0C59
:100BC0008D2F5AC0802F0E945E0CF8CF8D2F0E946F
:100BD0000105002379F080E28D0F883010F0D111EB
:100BE00004C0802F0E94540C03C0802F0E94640C0C
:100BF0000E94DA0CEB2DE850FF0B349720F40E9492
:100C00000B200E940604EE2089F00E94400C80FD1B
:100C10000DC0F60115820E943A0C0E945808C601C8
:100C20000E9496070E943A0C0E946808CDB7DEB772
:100C3000E9E00C947B292C2F2F70F22EC07FC0325C
:100C400019F0F29480EFF822DD2341F0D130D1F198
:100C5000112309F444C00023F1F0B2CF8091D602F1
:100C600082FD15C0112359F0FF2029F08F2D0E941D
:100C70004E0C0E94DA0C80E00E946E04BBCF80E034
:100C80000E940105FF2009F4B5CF8F2DABCF1123B2
:100C900069F0011104C08F2D0E947C05ABCF01309B
:100CA00009F0A8CF8F2D0E94820CA4CF0111A2CFF2
:100CB0008F2D0E9483058F2D0E948E0C8F2D0E94F8
:100CC000720C98CF112321F0063008F093CFE3CFB8
:100CD000053008F08FCF8F2D0E9483058BCF002326
:100CE000D1F3D93349F43FEF87EE93E031508040A0
:100CF0009040E1F700C000008D2F0E9401057ACFDF
:100D00008C2F86958695837069F0813009F072CFBB
:100D10008D2F9C2F9370111102C080E090E00E94F3
:100D2000592068CF8D2F9C2F9370111102C080E045
:100D300090E00E9434205ECF612F8D2F0E946404CA
:100D400059CF8C2F8370A1F5111154CF4D2F42959F
:100D500046954770440F440F2D2F2F7030E0042E1E
:100D600002C0220F331F0A94E2F790E080E0D4FF24
:100D700009C08FE090E002C0880F991F4A95E2F702
:100D800080959095C695C695C370822B932BC230E3
:100D900049F058F4C13019F00E9428082BCF0E9466
:100DA0001F0828CF0E94310825CF0E941C0822CF9F
:100DB0008695112311F08C2F8170882309F41ACFA6
:100DC0004D2F429546954770440F440F2D2F2F709D
:100DD00030E0042E02C0220F331F0A94E2F790E0A5
:100DE00080E0D4FF09C08FE090E002C0880F991F17
:100DF0004A95E2F780959095C695C695C370822B6B
:100E0000932BC23049F058F4C13019F00E94930876
:100E1000F1CE0E948A08EECE0E949C08EBCE0E9482
:100E20004008E8CECF70112329F08C2F0E9458087B
:100E30008D2F32CF8D2F0E9483058C2F0E94680842
:100E4000D9CED23F41F160F4D03FB9F0D13F81F02B
:100E5000112309F443C00111B3CE8C2F8F711FC031
:100E6000D33F01F1D43FA1F78091D60282FD24C087
:100E70008C2F8F71112311F312C0112341F0053013
:100E800008F0B8CE8C2F8F710E947A08B3CE06304E
:100E900008F0B0CEF7CF8C2F8F711111CFCF0E94F9
:100EA0005808A8CE112329F08C2F8F710E944C086E
:100EB000A1CE0E9447089ECE112331F063E08C2F13
:100EC0008F710E94E10C96CE81E00E94FF0C0230EF
:100ED00008F490CE82E00E94FF0C8CCE002359F0E3
:100EE000D93309F009CFEFEFF7EE23E0E150F040FE
:100EF0002040E1F7FFCE8C2F8F71A0CF0F931F936F
:100F0000CF93DF93EC01688179818D810E945B0929
:100F10008C010E94A5080E941B08B801CE010E9406
:100F20008A05DF91CF911F910F910895CF93DF93A1
:100F3000EC018C81882399F0CE010E9487038111F6
:100F400011C00E94440C882351F08D81882339F010
:100F50008091D60282FF03C082E00E94FF0CDF91E5
:100F6000CF910895CE010E947E07CE010E945803C2
:100F7000F6CF90E080E00E94342090E080E00E9474
:100F800059200E946B0C0E94DA0C0E944E1E0E9497
:100F9000321E08950E94DE200E94B90708950E9423
:100FA0005B0C0E94CA07089592959F70963091F04D
:100FB00058F4925F9F70923058F4803F19F030F4EB
:100FC000883E30F481E008959A5FF4CF843FD1F3F6
:100FD00080E00895883EB0F3813FD1F7F3CFFC0164
:100FE0002481222339F0808191810E9450090E943E
:100FF000D407089580E00895A6E0B0E0E2E0F8E0CC
:101000000C9466292696E2E00C948229A7E0B0E0D1
:10101000ECE0F8E00C9466292796E2E00C94822933
:1010200008950E94100808950E94110890931502D7
:1010300080931402089508950E9414080895209141
:10104000140230911502822B932B0E9414080895EC
:101050002091140230911502822393230E941408D8
:1010600008952091140230911502822793270E943F
:10107000140808950E94100808950E943A080895DF
:101080000E943D089093130280931202089590E00D
:1010900080E00E944008089521E030E0A90102C0EC
:1010A000440F551F8A95E2F7CA010E94400808952F
:1010B00021E030E002C0220F331F8A95E2F78091D1
:1010C000120290911302822B932B0E9440080895E4
:1010D00021E030E002C0220F331F8A95E2F720950D
:1010E00030958091120290911302822393230E94E3
:1010F0004008089521E030E002C0220F331F8A9596
:10110000E2F78091120290911302822793270E94A6
:10111000400808952091120230911302822B932BE4
:101120000E944008089520911202309113028223F8
:1011300093230E94400808952091120230911302D7
:10114000822793270E94400808950895262F27702C
:1011500091E001C0990F2A95EAF723E0769567950B
:101160002A95E1F7660F771F660F771FFA01E60FE2
:10117000F71F50E040E0682F70E08191DF01119788
:101180009B01042E02C0369527950A94E2F7217040
:1011900021952827292328272C934F5F5F4F443020
:1011A000510559F70895A82FA77023E096958795C4
:1011B0002A95E1F7880F991F880F991FFB01E80F07
:1011C000F91F50E040E080E0219130E00A2E02C09B
:1011D000369527950A94E2F721703327042E01C033
:1011E000220F0A94EAF7822B4F5F5F4F443051057C
:1011F00059F70895262F953070F48F3060F4682FDA
:1012000070E08FE0989F600D711D11244AEE51E04F
:10121000822F0E94A6080895292F953068F48F30F8
:1012200058F490E06AEE71E03FE0239F800D911D3D
:1012300011240E94D308089580E00895B0E0A0E052
:10124000E4E2F9E00C945F297C0100911202109114
:1012500013028091140290911502082B192BCFE0F4
:10126000D0E0CC24C394D12CBC2EC6010C2E02C0DD
:10127000880F991F0A94E2F780239123892B49F460
:10128000219790F7B12C8B2DCDB7DEB7E9E00C9408
:101290007B29B7018C2F0E940E10019789F3F3CFA1
:1012A000CF93DF93EC010E941E09BE010E940E1035
:1012B000DF91CF9108951F93CF93DF93EB0190912E
:1012C000E901992339F0CB010E945009DF91CF91B8
:1012D0001F910895882369F0CB010E941E09182FE1
:1012E000682FCE010E94FA08BE01812F0E940E10C5
:1012F000EDCFCB010E940C09182FF6CF1F93CF938F
:10130000DF93C091160217E0809117028C1304C07E
:10131000DF91CF911F910895D0E01C9FF0011D9F98
:10132000F00D1124E85EFD4F20813181428153810F
:101330006481758186810E9406082196C770E4CF7A
:10134000209150023091510240915202509153022B
:101350006091540270915502809156020E940608D5
:101360000895CF93DF9380915602807F09F04DC09E
:1013700080915502882309F448C0E09116025091EB
:101380001702C0915102D0915002609152027091A7
:10139000530247E05E17C9F18E2F90E0E49FF00101
:1013A0001124E85EFD4F2481222391F1489FF00132
:1013B000499FF00D1124DF01A85EBD4F11962C91BD
:1013C00011972C1325C02C912D1322C015962C910A
:1013D000159721111DC012962D913C91261B370B9C
:1013E000283C3105A8F4809156028F70806180936B
:1013F0005602E25EFD4F80818F708061808380E5C0
:1014000092E00E9496070E947E09DF91CF91089595
:10141000FC013196E770BECF482F209116029091C3
:10142000170257E0291302C080E0089530E0529F70
:10143000F001539FF00D1124E85EFD4F8181681388
:1014400006C08081481303C085818111EECF2F5FD4
:101450003F4F2770E7CFA4E1B0E0E1E3FAE00C945E
:101460005C298C0186E0F801DE011F9601900D9247
:101470008A95E1F7F8018481E58090E5A92E92E054
:10148000B92E9091540291111FC08823D1F0EE2003
:10149000A9F0C8010E94EF07F82E882379F087E0B1
:1014A000F801D50101900D928A95E1F7C5010E94DE
:1014B0005B040E94B1090E94A0095FC0C8010E949C
:1014C0009607FF24F39459C0C080D1808280938016
:1014D000F09055022091520230915302A401421B18
:1014E000530BFF2009F4F9C0483C510508F0A7C090
:1014F000882309F442C09091510280915602282F0E
:10150000207F09F05CC09D1116C090915002C91255
:1015100012C0E1104EC08F708061809356020E940D
:10152000A00980E592E00E94960780915602F8019A
:101530008683F12C22C0E1103CC06D2D8C2D0E94C1
:101540000C0A6D2D8C2D0E940C0AE82E8111F1CF12
:10155000CF86D88A8F8598890E945009292F229595
:101560002F70243078F49F702230A8F09923B9F0BE
:10157000F8019681907F99F4FE2C8F2D6496ECE013
:101580000C9478292A5F2F70223068F0C8010E94DD
:101590009607EF2CF1CF992311F0882369F3805E31
:1015A000883050F3F3CF803F38F3815F833070F79A
:1015B000E3CF80915602816080935602BACF9D118D
:1015C00013C090915002C9120FC0E1100DC0868364
:1015D000C8010E94960787E0F801A0E5B2E00190FB
:1015E0000D928A95E1F767CFC8010E94EF07882323
:1015F00009F464CFEE2009F461CF80915602803265
:1016000088F02091500230915102398728879B86BB
:101610008A86909154029C871D868E87CE010896FB
:101620000E94960787E0F801A0E5B2E001900D92D4
:101630008A95E1F70E94B1090E94A00942CF9091DA
:101640005602292F207FA1F4682D9A8A898AA60143
:101650007A899E2D0E94FC0780E592E00E94960701
:1016600087E0F50111928A95E9F70E94A00961CF00
:10167000882309F482CF809151028D1110C080918E
:101680005002C8120CC0E1100AC09683C8010E9423
:10169000960787E0F50111928A95E9F76ECFC801A8
:1016A0000E94EF07882309F409CFEE2009F406CF42
:1016B00080915602803208F4B5CF209150023091CB
:1016C00051023A8329839C828B82909154029D839C
:1016D0001E828F83CE010196A3CF483C5105B8F5F9
:1016E000882309F4EECEFE2CEE2009F4E7CE80919B
:1016F00051028D111EC080915002C8121AC08091F3
:10170000560280FD0DC0982F907F51F08683903F48
:1017100009F45ECF982F907F905F8F70892B57CF01
:1017200087E0F801A0E5B2E001900D928A95E1F71B
:1017300024CFC8010E94EF07811174CF8091560217
:10174000816080935602C8010E94960716CF682DCB
:101750009A8A898AA6017A899E2D0E94FC0787E0D1
:10176000F50111928A95E9F7A6CEAEE0B0E0EBEB79
:10177000FBE00C946529288739874A875B876C874B
:101780007D878E87CE0108960E942B0A8823B1F0B0
:101790006C85662341F0288539854A855B857D8582
:1017A0008E850E94060817E080911602909117021C
:1017B00089133DC02E96E3E00C94812987E0FE0159
:1017C0003896DE01119601900D928A95E1F78C858D
:1017D000882349F32091170230E0C90101968770F0
:1017E0009927409116024817190699F097E0929FA1
:1017F000D001939FB00D1124A85EBD4FFE0131961C
:1018000001900D929A95E1F7809317020E947E094C
:10181000CACF0E94CF07109217021092160287E0DB
:10182000E0E5F2E0DF011D928A95E9F7BCCF819FE8
:10183000C0011124885E9D4F0E942B0A882309F461
:10184000B9CFE09116021E9FF0011124E85EFD4F12
:1018500020813181428153816481758186810E941A
:1018600006088091160290E0019687709927809370
:1018700016029ACF80915F02869586958695089587
:1018800080915F028770089590915F02977081E068
:1018900009F480E0089580916B02089590916B02A5
:1018A000892B80936B020895809590916B02982309
:1018B00090936B02089510926B02089590916A02C2
:1018C000892B80936A020895809590916A029823EB
:1018D00090936A02089510926A02089508950E94F2
:1018E0006E0C089590916002292F282331F0809585
:1018F0008923809360020E946F0C089508950E94CE
:101900007E0C089590916102292F2823281729F031
:10191000982B909361020E947F0C08959091610230
:10192000292F282331F080958923809361020E941A
:101930007F0C089580916102882329F01092610242
:1019400080E00E947F0C08950F931F93CF93DF9345
:101950000091040110910501C0916B0280916A020F
:10196000C82B80916102882331F0C82B0E947E2011
:1019700081110E949A0CF801C083C0910401D0919A
:10198000050148E050E067E572E0CE010E942C2A94
:10199000892B59F088E0FE01A7E5B2E001900D9295
:1019A0008A95E1F7CE010E941B20DF91CF911F9114
:1019B0000F9108950E94A40C089508950E94DD0CD3
:1019C00008959091D60292FF11C098E0899F9001EE
:1019D0001124622B60935F020E94580880915F027D
:1019E0008695869586950E94DE0C08950E9458087B
:1019F000089510925F0280E00E94DE0C089590919D
:101A00005F028095892380935F02282F277069F4F5
:101A1000891759F09091D60292FF07C08695869556
:101A200086950E9468080E94F90C08959091D6024C
:101A300092FB222720F9281769F080FB92F99093F6
:101A4000D6028091D5029091D6020E945E0D82E06E
:101A50000E94FF0C08958091D60282FB882780F9AE
:101A600091E089270E94160D089581E00E94160DCD
:101A7000089580E00E94160D08956FEF7FEF90E0CB
:101A800080E00E94842A089590E080E00E94502A1D
:101A900021E0853E9E4F09F020E0822F089582E0EC
:101AA00090E00E94422A089583E090E00E94422A3A
:101AB000089584E090E00E94502A0895BC0184E0DB
:101AC00090E00E94842A0895AB01BC018FE090E071
:101AD0000E94782A0895AB01BC0183E190E00E9446
:101AE000782A089560E070E0CB010E946B0D0895A4
:101AF00060E070E0CB010E94640D0E94720D0895B9
:101B0000A8E0B0E0E6E8FDE00C94662965EE7EEF23
:101B100090E080E00E94842A60E082E090E00E94F1
:101B2000662A81E090E0909315028093140261E0B0
:101B300083E090E00E94662A60E074E184E090E037
:101B40000E94842A60E086E090E00E94662A60E0BD
:101B500087E090E00E94662A40E050E0BA0188E009
:101B600090E00E94782A60E083E290E00E94662A7A
:101B700060E08CE090E00E94662A60E08DE090E0FA
:101B80000E94662A19821A821B821C821D821E8272
:101B90001F82188648E050E067E170E0CE010196B0
:101BA0000E94562A40E050E0BA018FE190E00E9486
:101BB000782A0E94780D2896E2E00C9482290E94EF
:101BC000800D0895682F8EE090E00E94662A0895A7
:101BD000A6E0B0E0EEEEFDE00C9464290E94BC218A
:101BE0008C0180916C0290916D028017910781F0B9
:101BF00019821A820E94BC21682F49815A81792F4B
:101C000080E090E00E942B0410936D0200936C0220
:101C10002696E4E00C9480290E94C82160937C02FF
:101C200070937D0280937E0290937F02609378028E
:101C30007093790280937A0290937B0208950895BD
:101C400008950E941F0E089508950E94240E08957D
:101C500084E091E10E9469120E94200E0E94210EF0
:101C6000089581E008950E94310E08950E94310E7A
:101C70000895089508950E94390E0E943A0E08951D
:101C80000E94440D811102C00E94DF0D0E944F0D81
:101C9000809380020E94590D9093D6028093D502C2
:101CA0000E94851A0E94540D90E00E941C088091A9
:101CB0001202909113020E943D0808950E94B321E0
:101CC0000E94C4110E94400E0E9405040E94C9187F
:101CD0000E94250E0895A6E0B0E0E1E7FEE00C9436
:101CE0005A290E94330E81110CC00E94E80D0E94F7
:101CF000AA190E94701E0E9412042696EEE00C940F
:101D000076290E94DA112EE6822E22E0922E6401BC
:101D100010E0F601E190F1906F01812F0E940B110C
:101D20001F5F153009F44BC0E816F90691F3809156
:101D3000800281FD0E9414110E94360E782E10E060
:101D400066246394812F0E940B117C01F401A19001
:101D5000B1904F018A159B0561F100E0CC24C3943A
:101D6000D12CAE24BF24C5018C219D21892BC1F02B
:101D70007720B1F009831A830E94BC219C838B8356
:101D80006D8221E0C7018C219D21892B09F420E07F
:101D900049815A816B817C818D81922F0E942B0415
:101DA0000F5FCC0CDD1C0F30F1F6F4013297F1829D
:101DB000E0821F5F153031F60E940C0E98CFE816B6
:101DC000F90609F0B4CF91CF1F93CF93DF930E9410
:101DD0001310EC01C11580E5D807F0F5C11580E4BA
:101DE000D80708F09CC0C03ED10520F5CD3CD105F8
:101DF00008F082C0C83AD10578F4C53AD10508F098
:101E000073C0C130D10519F1209709F1C430D10553
:101E1000F0F4D0E0C0E01BC0C33CD105D0F7C85AF5
:101E2000D0E0CC0FDD1FCB59DE4F0990D881C02DFB
:101E3000D4640DC0C11580E2D80708F0D1C0C11527
:101E400081E0D80708F05AC0C83ED10510F7CE018E
:101E5000DF91CF911F910895C03682E5D80718F51C
:101E6000C03482E5D80708F06BC0C03282E5D807DD
:101E700008F05FC0C11582E5D80708F497C02C2F81
:101E80002695269580E2289F900111248C2F83703F
:101E9000C1E0D0E002C0CC0FDD1F8A95E2F7C22B73
:101EA000D32BDD68D4CFC03A82E5D80760F4C038C0
:101EB00082E5D80708F459C0CF71D0E0DC2FCC27D9
:101EC000C46FD06AC4CFC03C82E5D80708F462C0B2
:101ED000C03E82E5D80708F09CCFDC2FCC27CC276A
:101EE000DF71C06FD06AB3CFC55AD0E0C556DE4FA0
:101EF000C881D0E0D064ABCFD065A9CF8D2F0E9430
:101F0000B510182FCE0199270E941310C12FD0E0D1
:101F1000DC2FCC27CC27DF71C82BD92B98CFCE0153
:101F200099270E941310CC27DF70C82BD92BD06AB9
:101F30008ECFCF71D0E0DC2FCC27C16FD06A87CF96
:101F40002C2F26952695277080E2289F900111243A
:101F50008C2F8370C1E0D0E002C0CC0FDD1F8A95CA
:101F6000E2F7C22BD32BDC6872CF2C2F2695269557
:101F7000277080E2289F900111248C2F8370C1E08C
:101F8000D0E002C0CC0FDD1F8A95E2F7C22BD32B25
:101F9000DA685DCF8C2F8F710E94B510C82FD0E00A
:101FA000DC2FCC27CC27DF71D06251CF8C2F8F71E3
:101FB0000E94B51055E0D695C7955A95E1F7CF70B8
:101FC000D0E0DC2FCC27282F30E084FF05C044E090
:101FD000220F331F4A95E1F7C22BD32BD06937CF9D
:101FE0008D2F8F710E94B510182FCE0199270E9456
:101FF0001310C12FD0E0DC2FCC27CC27DF71C82BEA
:10200000D92BD2CF462F753030F46F3020F4672FA4
:102010000E94FF02089590E080E008950E9402105F
:102020000E94E40E089582389105B9F1B0F481332D
:10203000910509F47DC048F48932910509F46DC019
:102040008A32910509F47BC008958533910509F41E
:102050005FC08933910509F10895833E9105D9F157
:1020600038F4803E910529F1823E910579F1089579
:10207000863E9105D9F1873E910509F43EC0843E24
:10208000910541F52091D60221FF24C08091D5020F
:1020900084FD19C087EE90E008952091D502237049
:1020A00009F05AC02091D60223FF14C089E290E0C3
:1020B00008952091D50220FD38C03091D60230FF1E
:1020C00009C024FF43C090E080E008952091D5022C
:1020D00022FDF7CF08952091D50222FD3AC030911C
:1020E000D60230FD39C024FFF5CFEDCF2091D502C7
:1020F00023FFF0CF24FDE7CFCDCF2091D50223FDE4
:102100002EC03091D60231FFEECF84EE90E00895DC
:102110002091D50225FFDECFC9CF2091D50225FD24
:1021200021C02091D60223FFD5CF89E390E0D2CF02
:102130002091D50226FFCECF8AE290E0089520912B
:10214000D50226FFC7CF81E390E0089583EE90E0AB
:10215000089582EE90E0089580EE90E0089586EE76
:1021600090E0089585E390E008959091D50292FF64
:1021700010C041E0282F2471243009F040E031E004
:10218000282F2871283009F030E0431711F02CE097
:10219000822793FF10C041E0282F2471243109F0D9
:1021A00040E031E0282F2871283109F030E0431752
:1021B00011F02CE082273091D60230FF10C051E0A0
:1021C000282F2171213009F050E041E0282F28719B
:1021D000283009F040E0541711F029E0822731FF40
:1021E00010C041E0282F2171213109F040E031E099
:1021F000282F2871283109F030E0431711F029E029
:10220000822794FD877E089580E0089508950895BB
:102210000E9407110895E82FF0E0EE0FFF1FEF5125
:10222000FD4F808191810895089580EA8A95F1F7A4
:10223000089500C008950E9415110895F894E82F9C
:10224000E295EF70F0E031A1282F2F7081E090E04F
:1022500001C0880F2A95EAF7982F9095932391A3B0
:1022600092A1892B82A3789408950F931F93CF9303
:10227000DF93CDEAD1E089918F3F11F00E941E11CA
:1022800081E0C23BD807B9F7CEE9D1E00DEA11E011
:1022900089918F3F11F00E941E110C171D07C1F785
:1022A000DF91CF911F910F910895AF92BF92DF926E
:1022B000EF92FF920F931F93CF93DF938C01D62E53
:1022C000C62FD0E0CE0183559E4F7C01FC012081BA
:1022D0002F3F09F44CC0F894E22FE295EF70F0E044
:1022E00031A12F7081E090E001C0880F2A95EAF7B4
:1022F000932F982B91A392A18095892382A3789400
:102300000E941911EEE9F1E041E050E0B12CA12C5E
:1023100021912F3FB1F1A22FA295AF70B0E090961E
:102320008C9190E02F7002C0959587952A95E2F7E1
:1023300080FD27C0CA01A82AB92A440F551F81E091
:10234000ED3AF80729F7F70180818F3F11F00E94DD
:102350001E1161E0A114B10409F460E08D2D0E940A
:102360001B11CC0FDD1FC00FD11FB982A882DF91D6
:10237000CF911F910F91FF90EF90DF90BF90AF90A2
:10238000089590E080E0D7CF0E9435118AE0E1EE19
:10239000F2E0DF01982F1D929A95E9F7E7EDF2E060
:1023A000DF011D928A95E9F785E00E9415120E94CF
:1023B000DA020895AAE0B0E0E0EEF1E10C946329BE
:1023C0008E010F5F1F4F8AE0F80111928A95E9F79D
:1023D000F12C6F2DC8010E945511F394F5E0FF1206
:1023E000F8CF4AE050E0B80187ED92E00E942C2A35
:1023F00021E0009709F420E0892B41F08AE0F80100
:10240000A7EDB2E001900D928A95E1F745E061EE0B
:1024100072E087ED92E00E941612182F0E940811B8
:10242000812F2A96E5E00C947F290895B0E0A0E082
:10243000ECE1F2E10C9460296C017B01042FC22FC6
:10244000222379F081E0809383020E94BC21909343
:1024500082028093810280E0CDB7DEB7E8E00C9481
:102460007C29D0918302DD23B1F380918102909188
:1024700082020E94D421059770F310E0000F111F13
:10248000A801B601C7010E942C2A892B31F0A801AE
:10249000B601C7010E94392ACD2F109283028C2FDA
:1024A000DBCF0E946B0E08950E9455210E94772376
:1024B0000E94280E0E9491230E945E0E0E949E237D
:1024C0000E94A3230E9451120E94BD230E943B0E32
:1024D000F7CF9093E3018093E2010895EF92FF928A
:1024E0000F931F93CF93DF93EB01E82FD1110EC011
:1024F000442321F0F0E0EE50FD4FE4916E2F7E2F4B
:102500008E2FCDB7DEB7E6E00C947E290D2F10E0BC
:10251000282F30E0442329F02E503D4FF90124911B
:1025200030E0F6E0CF9FC0011124EFEFF0E0BF01F3
:102530000E94D528AB018C2F90E0880F991FA5E54C
:10254000A49FB001A59F700D1124861B970B982F97
:10255000990F980FBF01601B710B629FD001639FA1
:10256000B00D729FB00D11248B2F9D9FB0011124CF
:10257000672F7727EF01C61BD70BBE01629FE001D3
:10258000639FD00D729FD00D11247F01E91AF108CD
:10259000E09EB001E19E700DF09E700D1124672F3A
:1025A0007727E61BF70BE29F8001E39F100DF29F58
:1025B000100D1124E12F722F4230510599F048F48B
:1025C0004115510569F04130510581F0EB2F8D2FF8
:1025D00007C04430510569F080F046305105B1F72D
:1025E0006E2F8FCFE22F7B2F812FFACFE22F7D2FFF
:1025F000F7CFEB2F822F712FF3CF7B2F822FED2F71
:10260000EFCF41E00E946E12089508950E940113D9
:102610000895CF93DF93762FE901682F842F0E94CE
:102620000613798368838A83DF91CF91089580911F
:10263000EB02982F9C7F29F4837084608093EB02D7
:1026400008958C3AE8F38370886AF8CFB0E0A0E090
:10265000ECE2F3E10C94602988E090E00E944A2AC1
:102660006B017C0183E290E00E94422A282F30E037
:1026700040E050E060E070E080E090E000E20E9426
:102680008D29B22FA32FF42FE52FD62FC72F970117
:102690008601BC29A12BFE295E2F532B2B2F3A2F0D
:1026A0004F2F6D2F7C2FCDB7DEB7E8E00C947C293F
:1026B000B0E0A0E0EEE5F3E10C945C2949015A0199
:1026C0006B017C010E9417138401A4016A2D7B2DEC
:1026D00088E090E00E94782A94014A2D5B2DB60193
:1026E000C70100E20E94A829622F83E290E00E94C5
:1026F000662ACDB7DEB7ECE00C947829EBEEF2E079
:1027000085E0808311828FEF8283838314827581B9
:1027100025E030E04FEF5FEF60E0868197810E9417
:10272000581308958091EB0280FF03C0869586952B
:10273000089580E008959091EF02933018F49F5F20
:102740009093EF02882391F02091EB023091EC02FC
:102750004091ED025091EE026091EF027091F00213
:102760008091F1029091F2020E945813089581E045
:102770000E949B1308959091EF02992319F09150B4
:102780009093EF02882391F02091EB023091EC02BC
:102790004091ED025091EE026091EF027091F002D3
:1027A0008091F1029091F2020E945813089581E005
:1027B0000E94BB13089560910A018091EB0280FF93
:1027C0000FC070E08091090123E0829FC0011124B5
:1027D000E091DF01F091E0018D509D4F0995089542
:1027E00080910B0190910C0123E0829FF001112454
:1027F000ED50FD4F891728F71182108212828F5FEA
:102800003396F8CF9091EB0290FF0EC090910B01A0
:1028100020910C0133E0939FF0011124ED50FD4F06
:10282000921718F00E94DB1308958183608342831E
:102830009F5F3396F5CFA3E0B0E0E1E2F4E10C94C2
:1028400066299091EB0290FF0AC09E012F5F3F4FD7
:102850000E9409134B8169818A810E940214239688
:10286000E2E00C948229CF93DF93EC01EC81F0E05D
:10287000E351FE4F4491EBEEF2E0628181810E94D0
:102880001B148C818F5F8C83DF91CF910895CF9340
:10289000DF93EC01EBEEF2E0438162818C810E94D8
:1028A0001B148C818F5F8C83DF91CF910895A3E0FF
:1028B000B0E0EDE5F4E10C9464298C018091840290
:1028C00081110AC09E012F5F3F4F4FEF6FEF0E94B3
:1028D00009138A8180938402F8016481613069F070
:1028E0008091840240E0662361F040E0623011F4A0
:1028F0004091840280E060E004C06091840240E086
:1029000080E00E940214F801848190E0019663E067
:1029100070E00E94E92884832396E4E00C948029E7
:10292000A3E0B0E0E6E9F4E10C945F29082FD62E8D
:10293000F42EC22E9091EB0290FF2FC0E92FE69566
:10294000E695AE2FB0E0AE54BE4F8C918093AC02B2
:102950009C7F943031F59E012F5F3F4F802F0E9466
:1029600009134B8169818A810E9402140093EC0251
:10297000D092ED02F092EE02CC2079F02091EB02A1
:102980006091EF027091F002302F4D2D5F2D8091FC
:10299000F1029091F2020E9458132396E9E00C9400
:1029A0007B29823019F4F090EE02E0CF863019F4E2
:1029B0000091EC02DBCF8930D9F38931B9F6E951C6
:1029C0006E2F6170B62EE695F0E0E351FD4F149145
:1029D000E12C60910D01E61618F00E94DB13C6CFC2
:1029E000E19EC001112470E00E94D528802FB11013
:1029F00014C0860F20910B01622F6E0D7727771F71
:102A00009B01220F331F260F371F2D503D4F4F2D97
:102A10006D2D0E940913E394DCCF861BEBCFEBEE08
:102A2000F2E09181282F438162818CE0890F0E941E
:102A30009014089581E00E940F150895EBEEF2E0E6
:102A40009181282F4381628184EF890F0E94901425
:102A5000089581E00E941E150895EBEEF2E0628178
:102A600029E1620F08F46FEF282F438181810E94D2
:102A70009014089581E00E942D150895EBEEF2E088
:102A8000628129E1621B08F460E0282F4381818183
:102A90000E949014089581E00E943E150895EBEE87
:102AA000F2E043812CE0420F08F44FEF282F6281BF
:102AB00081810E949014089581E00E944F1508952D
:102AC000EBEEF2E043812CE0421B08F440E0282FBB
:102AD000628181810E949014089581E00E946015B6
:102AE000089520E00E9490140895EF92FF921F93A2
:102AF000CF93DF93EC0110E0EE24EA94F12C609187
:102B00000D01161770F00E94DB139A818C8190FFE3
:102B100027C08F5F8C83DF91CF911F91FF90EF9043
:102B2000089520910B01422F410F5527551FCA01CF
:102B30009A01220F331F280F391F2D503D4F70E08F
:102B4000C7010E94E928962F8C814091EE02609186
:102B5000ED02199F800D11240E9409131F5FCFCF32
:102B60008150D8CFB0E0A0E0E8EBF5E10C945E290D
:102B7000FC0182810FEF80FF01E010E046E0A42E0F
:102B800080910D01181798F00E94DB138091860246
:102B9000013009F04FC0811102C080910D018150B8
:102BA00080938602CDB7DEB7EAE00C947A29C09113
:102BB0000B01C12ED12CCC0DDD2DD11DCE01880FE6
:102BC000991FC80FD91FCD50DD4F198218821A8264
:102BD00034E0E32EF12CB12C809186028B0D8730EE
:102BE0001CF16A2D0E94C728892F082E000C990B12
:102BF000C816D90691F48091EE028E9DA0018F9D9A
:102C0000500D112455954795559547959E01609116
:102C1000ED028091EC020E940913B00EF1E0EF1A70
:102C2000F108D1F61F5FACCF87FFDFCF90910D0188
:102C3000890FDBCF90E0019660910D0170E00E945A
:102C4000E928AECF0F931F93CF93DF9380910B01B1
:102C500090910C0123E0829FF0011124ED50FD4F73
:102C6000891740F1C0E0D3E060910D01C61740F133
:102C70000E94DB132091070180918502820F8093CF
:102C8000850290910801920F90930801191654F44F
:102C9000082E000C990B40910D014150550B8417E3
:102CA00095071CF0219520930701DF91CF911F918B
:102CB0000F9108951182108212828F5F3396D0CFC8
:102CC0000C2F10E070E0C8010E94E92820910B0150
:102CD000820F482F50E020918502022E000C330B0A
:102CE00002171307BCF020910801022E000C330BD1
:102CF000201731077CF08D9F900111242D503D4FFE
:102D00004091EE026091ED028091EC020E94091365
:102D1000CF5FAACFFA01EE0FFF1FE40FF51FED50B2
:102D2000FD4F118210821282F3CFB0E0A0E0EBE9F8
:102D3000F6E10C945C29EC014C81042F10E0980121
:102D4000D8010E942D299B01AC010E9443294B010F
:102D50005C01E0E2F0E0E01BF10BA5E5B0E0AC01C6
:102D60009B010E9443296B017C019F01DF010E94AE
:102D700025299B01AC010E944E299B01AC01280D25
:102D8000391D4A1D5B1DC701B6010E94FD28F22EA8
:102D9000822F90E039E23F1520F143E0249F90011B
:102DA000112435952795122F109500E085E5E82E22
:102DB000EF1880910D01081718F10E94DB139C8118
:102DC00081E0992319F0903219F48FEF8093060176
:102DD00080910601890F8C83CDB7DEB7ECE00C94AF
:102DE000782925E530E0B901681B790B9B01220F9A
:102DF000331F260F371F37FFD4CF2F5F3F4FD1CF61
:102E00008E2D01FD8F2D20910B01622F600F7727F2
:102E1000771F9B01220F331F260F371F2D503D4F69
:102E2000412F6091ED020E9409130F5FC2CF0F93F3
:102E30001F93CF93DF93EC0110E000E090910D0120
:102E40009017110609F06CF40E94DB138C8190E05E
:102E50000196817099278C83DF91CF911F910F91FB
:102E6000089520910B01A801420F511D9A01220FD4
:102E7000331F240F351F2D503D4F4C816091ED02C3
:102E80008091EC0296959017110651F04CF0442376
:102E900049F04091EE020E9409130F5F1F4FCECF01
:102EA0004423B9F340E0F7CFB0E0A0E0EAE5F7E172
:102EB0000C945829FC016280448081E08483EDEE0B
:102EC000F1E07490ECE6F2E0E491C091EE02C69578
:102ED000C158D0E0CC0FDD1FCD2FDD27812C75E050
:102EE000972EAA24AA94B12C55245A94E719EE2EB1
:102EF000F12C80910D01881638F00E94DB13CDB7BC
:102F0000DEB7E0E10C947429C82CD12C82E0861540
:102F100068F09C9CF0019D9CF00D1124E957FD4F39
:102F20008091EC0280838091ED028183411023C067
:102F30009C9CF0019D9CF00D1124E957FD4F1382DC
:102F4000128220910B01C601820F911D9C01220F5C
:102F5000331F280F391F2D503D4F9C9CF0019D9C25
:102F6000F00D1124E957FD4F4281618180810E945B
:102F700009138394BECF9C9C80019D9C100D11244D
:102F800009571D4FF80183818823F1F08150838315
:102F9000859DC0011124648170E00E94D528FB0149
:102FA000FF27E351FE4F8491E82FE719E59DC0010B
:102FB0001124B7010E94D5288091EE02689FB001CC
:102FC0001124F8017283BDCF0E940F2AB5010E941F
:102FD000E9288C179D070CF0B4CFF2E0F61598F4B1
:102FE0000E940F2AB5010E94E928F80180830E94FF
:102FF0000F2A2091ED022695622F70E00E94E928A9
:10300000280FF80121839C9CF0019D9CF00D112458
:10301000E957FD4F12828091EE02893C58F088EC0E
:103020009C9CF0019D9CF00D1124E957FD4F848379
:10303000838387CF8431A0F784E1F2CFEBEEF2E017
:1030400020812E7F2083318142815381648175816B
:10305000868197810E9458131092AD020E94DB1363
:1030600008956091EB026695669570E04BE050E044
:103070008EE091E00E941F2A892B19F481E0809351
:10308000AD020E94BC219093A6028093A5020895F0
:103090009091EB0290FF34C09370811132C0946024
:1030A0009093EB02662391F02091EB023091EC02B9
:1030B0004091ED025091EE026091EF027091F002AA
:1030C0008091F1029091F2020E9458136091EB02FC
:1030D0006695669570E04BE050E08EE091E00E94CE
:1030E0001F2A892BB1F01092AD0281E08093A802D3
:1030F0004091EE026091ED028091EC020E94711508
:1031000008958B3210F0986ACBCF880F880F982BD8
:10311000C7CF0E943118E9CF682F9091EB029695A6
:10312000969581E0890F8B3208F081E00E94481863
:10313000089581E00E948C180895682F9091EB0209
:10314000969596958FEF890F09F48AE20E944818A8
:10315000089581E00E949D18089561E00E9448183A
:103160000895EBEEF2E080818160808386958695FC
:103170000E94AD1808958091EB0280FF03C00E9469
:103180001E1808950E94B118089560E00E94481822
:1031900008958091AB0281113CC00E9426132093B8
:1031A000EB023093EC024093ED025093EE026093F9
:1031B000EF027093F0028093F1029093F2022C7F61
:1031C000A1F40E947E130E9426132093EB023093F9
:1031D000EC024093ED025093EE026093EF02709385
:1031E000F0028093F1029093F2020E941713109262
:1031F000AD02E091DD01F091DE0109958091EB02D5
:1032000080FF04C0869586950E94C51881E0809352
:10321000AB0208950F931F93CF93DF938091AD027C
:103220008823C1F18091AC02E091EB02E695E6952E
:10323000E81BE093A702823091F5F0E0E751FE4FE2
:10324000E491CE2FD0E003E314E18091A80288231B
:1032500061F01092A8020E94BC219093A602809374
:10326000A5021092AA021092A9020E94BC21E0912C
:10327000A502F091A6028E1B9F0B8F3F9F4750F433
:10328000EC0FFD1FF093A602E093A50285EA92E001
:10329000F8010995DF91CF911F910F910895863024
:1032A00049F4F0E0EA51FE4FE491CE2FD0E007E47C
:1032B00014E1CBCF893051F4E695F0E0ED51FE4FAB
:1032C000E491CE2FD0E005E715E1BFCF8F3051F468
:1032D000E695F0E0E052FE4FE491CE2FD0E002EB15
:1032E00015E1B3CF853149F4F0E0E352FE4FE491AC
:1032F000CE2FD0E002E216E1A8CFC8E2D0E005E987
:1033000016E1883109F4A1CF833239F4EBEDF1E015
:10331000C591D49107E514E198CFC4EFD1E007E15E
:1033200017E1843209F491CFC0EDD7E005E013E155
:10333000853209F08ACF8E2F63E00E94BB28E92FE7
:10334000F0E0E852FE4FE491CE2FD0E004E517E123
:103350007CCF08950E940A190895FA01811101C0D5
:10336000FB0109950895CF93DF93C82FD62F0E94B4
:1033700092138C1748F00E9492138D1728F40E9424
:103380009918DF91CF9108958C2F0E94AD18F9CF35
:103390001F93CF93DF93EC01FB011581111110C036
:1033A0000E944B0C8272FE01E052F847E531F105B4
:1033B00008F05EC0E953F54D0C941F290E94BB181C
:1033C000812FDF91CF911F91089549EA58E169E972
:1033D00078E10E94AD19F4CF49E958E169EA78E152
:1033E000F8CF49E255E16AE175E1F3CF4AE155E1F1
:1033F00069E275E1EECF4BE455E16AE375E1E9CFAF
:103400004AE355E16BE475E1E4CF4DE655E16CE547
:1034100075E1DFCF4CE555E16DE675E1DACF47EDBB
:1034200053E167EB73E1D5CF47EB53E167ED73E110
:10343000D0CF81E00E94AD18C3CF65E082E00E944A
:10344000B319BECF68E086E0FACF6EE089E0F7CF2F
:1034500064E18FE0F4CF67E185E1F1CF88E1EACF65
:1034600062E289E1ECCF83E2E5CF6AE285E2E7CF71
:1034700011E0A6CF869A089541B34F7B51B35064B3
:10348000EFB7F8949B01220F331F260F371F280F29
:10349000391F2817390741F4EFBF8FE594E00197F2
:1034A000F1F700C000000895DC016D91CD0178E0D6
:1034B00051BB000000C067FF41BB660F000000C0A9
:1034C00000C000C041BB00C07A9591F7E2CF0E94D6
:1034D0003D0D089580E00E940B11817008950E94B7
:1034E000DA112FEF86E791E0215080409040E1F71C
:1034F00000C000000E94DA110E946A1A882321F09D
:103500000E94671A0E94072208950E946F1A089568
:103510008B3109F465C040F58B3071F078F486305A
:1035200009F447C020F4853059F180E008958730D0
:1035300009F448C08830C9F781E00895803109F462
:103540005DC068F48E3089F790918002892F8B7F5F
:1035500092FF84608093800282FD4CC0EDCF863163
:1035600059F3893149F3E1CF8A3201F160F48732AE
:10357000B1F020F48E31C8F28D514CC08932A9F6D9
:103580000E947B03D9CF833440F48A3308F041C0D2
:10359000853329F0883381F2C8CF833431F681E056
:1035A00090E00E941C080E94CF07C6CF0E94DF0D4A
:1035B000C3CF80918002807F8093800281E08093DE
:1035C000B102089590918002892F8E7F90FF8160D3
:1035D0008093800280FDB0CF817F80938002ACCF4A
:1035E00090918002892F8D7F91FF8260809380026D
:1035F00081FFA2CF809180028160EFCF9091800205
:10360000892F877F93FF88608093800283FDF2CFAC
:1036100093CF895321E030E0A90102C0440F551F28
:103620008A95E2F7CA01BDCF80E008950E94141B7D
:103630000895CF93C82F8091B1028130B9F08823CB
:1036400031F08230A1F11092B10280E00DC00E94F1
:103650004B0C8232D1F78C2F0E94141B81111BC09E
:103660008C2F0E94881A8170CF9108950E944B0C74
:10367000823289F38C2F0E94161B81110AC0C4313B
:1036800099F060F4CB3029F0C03169F782E0809383
:10369000B10281E0E8CF81E090E0E5CFC93221F0CE
:1036A000C833B9F380E0DFCF1092B102FBCFC9324B
:1036B00009F440C0F0F4C431E9F1A8F481E0C73066
:1036C00099F68093200184E180931F018AE0809322
:1036D0001E018EE180931D0188E080931A0188E22B
:1036E0008093190104C082EE8C0F8A3070F181E062
:1036F000BBCFC03509F450C0B8F48AE0CF34B9F775
:10370000E091AE02F091AF02309789F32081082E4C
:10371000000C990B820F911D8F3F910509F00CF45D
:103720003FC08FEF8083E3CFC135C1F181E0C23567
:1037300039F39ACF8091B0028823C9F21092B00277
:103740001092AF021092AE02D2CFCD51C093B00210
:10375000C330C9F048F4C13099F08FE191E0C23034
:1037600051F01092B002C3CFC53099F078F089E1E2
:1037700091E0C630B1F79093AF028093AE02B7CF1D
:1037800080E291E0F8CF8EE191E0F5CF8DE191E01C
:10379000F2CF8AE191E0EFCF86EFB2CF8FEFB0CFDB
:1037A00097FFC0CF1082A3CFCF93DF93EB01863179
:1037B0009C4711F50E944B0C9D81992399F08A7AC0
:1037C00091E009F490E09093B202811109C089E27E
:1037D0000E94CE200E94DA0C80E0DF91CF91089504
:1037E00085E3F6CF8091B202811104C089E20E9484
:1037F000D620F0CF85E3FBCF81E0EFCFCF93DF93EF
:10380000EC01FB018581882309F4D2C09E01305769
:103810002332310508F0B2C00E94590D9093D602B0
:103820008093D502FE01E150F047E232F10520F429
:10383000E452F54D0C941F298091D502816080934C
:10384000D50293C08091D60288608093D6028DC045
:103850008091D5028260F3CF8091D5028460EFCF52
:103860008091D5028860EBCF8091D6028160EDCF48
:103870008091D6028260E9CF8091D5028061DFCF4E
:103880008091D5028062DBCF8091D5028064D7CF52
:103890000E94CF078091D5028068D1CF8091D50258
:1038A0008C60CDCF8091D6028360CFCF8091D5023E
:1038B0008E7FC5CF8091D602877FC7CF8091D502FA
:1038C0008D7FBDCF8091D5028B7FB9CF8091D502FE
:1038D000877FB5CF8091D6028E7FB7CF8091D602F9
:1038E0008D7FB3CF8091D5028F7EA9CF8091D502F5
:1038F0008F7DA5CF8091D5028F7BA1CF0E94CF076E
:103900008091D5028F779BCF8091D502837F97CF0F
:103910008091D6028C7F99CF8091D50282FB992726
:1039200090F921E0922790FB82F990FB83F987CFF1
:103930008091D602982F909591708E7F892B90FB65
:1039400081F983CF9091D502892F8F7B96FF806478
:1039500076CF0E94CF079091D502892F97FB87F9E8
:1039600080586DCF81E00E94E20D8091D502909148
:10397000D6020E945E0D0E94CF0780E0DF91CF91BA
:10398000089580E0F0CF9091D502892F8F7E94FF2B
:10399000806155CF9091D502892F8E7F90FF8160F5
:1039A0004ECF9091D602892F877F93FF88604DCFAD
:1039B00081E0E4CF282F35EB2303C001112497FFCA
:1039C00004C080589109892F089580589F4FFBCFDC
:1039D0008091B90280FF0DC060911E0170E0660FFA
:1039E000771F6038710570F56115710569F1862FD3
:1039F000089581FF07C060911E0184E0689FB001B7
:103A00001124EFCF60911E0182FD0AC08091B8029F
:103A10008823A9F020911D0160911E01821710F0EA
:103A200088E0ECCF869FC001112433E0880F991FF6
:103A30003A95E1F7622F70E00E94E928D2CF68E062
:103A400070E0D5CF8FE7089581E008958091B902A5
:103A500080FF0CC060911A0170E0759567957595AF
:103A600067956115710549F1862F089581FF06C09C
:103A700060911A0170E075956795F3CF60911A0116
:103A800082FD0BC09091B7029923A1F060911901BA
:103A900080911A01961738F0682F70E06038710530
:103AA00000F38FE70895899FC001112470E00E9400
:103AB000E928F4CF61E070E0D7CF81E008958D3C34
:103AC00031F40E94E81C81958093BD0208958E3CDC
:103AD00019F40E94E81CF8CF8F3C31F40E94E81CD6
:103AE00081958093BC020895803D19F40E94E81CE2
:103AF000F8CF893D29F40E94261D8093BE020895C7
:103B00008A3D21F40E94261D8195F7CF8B3D31F42B
:103B10000E94261D81958093BF0208958C3D19F463
:103B20000E94261DF8CF9FE2980F983070F4815DB7
:103B3000990B21E030E001C0220F8A95EAF78091CD
:103B4000BB02822B8093BB0208958D3D31F480919E
:103B5000B90281608093B90208958E3D21F480916D
:103B6000B9028260F7CF8F3DB9F78091B9028460C6
:103B7000F1CF4091BC028D3C59F48091BD0287FF8A
:103B80000DC01092BD0241110BC01092B80208C0C6
:103B90008E3C81F48091BD0218169CF3442381F081
:103BA0008091BE029091BF02892B09F05AC01092F9
:103BB000B70208958F3C49F447FFF0CF1092BC0242
:103BC0008091BD028111ECCFE0CF803D19F4141635
:103BD000ACF3E4CF9091BE02893D29F41916F4F6B6
:103BE0001092BE02DBCF8A3D19F497FFD7CFF8CFF2
:103BF0009091BF028B3D29F497FFD0CF1092BF0266
:103C0000CDCF8C3D19F41916CCF3C8CF9FE2980F95
:103C1000983090F4815D990B21E030E0B90102C049
:103C2000660F771F8A95E2F7CB0180959091BB02D2
:103C300089238093BB02B2CF8D3D31F48091B902CC
:103C40008E7F8093B902AACF8E3D21F48091B90274
:103C50008D7FF7CF8F3D09F0A1CF8091B9028B7F87
:103C6000F0CF08950E94BC219C019091BC028091EC
:103C7000BD02982B21F03093B6022093B5029091AB
:103C8000BE028091BF02982B21F03093B4022093A2
:103C9000B3028AEB92E00E942620089586E0EAEBC8
:103CA000F2E0DF011D928A95E9F71092B8021092B6
:103CB000B7021092B9020895FC01828181110EC0F1
:103CC000838181110BC08481811108C091E08581BD
:103CD000811101C090E0892F8170089581E0FCCFAF
:103CE000A6E0B0E0E6E7FEE10C94652986E0EAEBA9
:103CF000F2E0DE01119601900D928A95E1F71092A3
:103D0000BC021092BD021092BE021092BF028B81C3
:103D10009C81892B89F08091B5029091B6020E9416
:103D2000D421AC019091B8029923C9F180911F016F
:103D30008417150608F440C08D819E81892B91F06F
:103D40008091B3029091B4020E94D421AC01909171
:103D5000B702992309F46AC080911B0184171506E4
:103D600008F472C0BE016F5F7F4F8AEB92E00E9441
:103D7000E920811105C08AEB92E00E945C1E81114E
:103D80000E94321E86E0FE013196AAEBB2E001905D
:103D90000D928A95E1F72696E3E00C948129209113
:103DA00020018AE0289F900111242417350720F66E
:103DB0009F5F9093B80202C09F3FD1F71B811123F0
:103DC00059F00E94E81C9FEF11160CF491E0899FB6
:103DD000802D11248093BC021C81112359F00E9474
:103DE000E81C9FEF11160CF491E0899F802D11249F
:103DF0008093BD028091BC02882309F49DCF10916D
:103E0000BD02112309F498CF0E94DA1C882351F0D7
:103E10008093BC02812F0E94DA1C882329F08093B2
:103E2000BD028ACF81E0F4CF81E0F9CF20911C015F
:103E30008AE0289F900111242417350708F092CFBB
:103E40009F5F9093B70202C09F3FD1F71D8111235E
:103E500059F00E94261D9FEF11160CF491E0899FE6
:103E6000802D11248093BE021E81112359F00E94DF
:103E7000261D9FEF11160CF491E0899F802D1124CF
:103E80008093BF028091BE02882309F46BCF10910A
:103E9000BF02112309F466CF0E94DA1C882351F077
:103EA0008093BE02812F0E94DA1C882329F0809320
:103EB000BF0258CF81E0F4CF81E0F9CF0F931F9379
:103EC000CF93DF93C42FD22FFC0185818823C9F0C3
:103ED0004093C2020E94BC219093C1028093C00211
:103EE00080E28C0F883040F4C77081E001C0880FF9
:103EF000CA95EAF70E947C05DF91CF911F910F913F
:103F000008951091C202141332C08091C0029091A2
:103F1000C1020E94D421883C910548F5C0E2CD0F32
:103F20001D17B9F080E2810F883040F4177081E0EE
:103F300001C0880F1A95EAF70E948305C83048F43B
:103F400081E09D2F977001C0880F9A95EAF70E9433
:103F50007C05802F0E947305C83070F6D77081E011
:103F600001C0880FDA95EAF70E948305C5CF80E289
:103F70008C0F883008F6C77081E001C0880FCA95A1
:103F8000EAF7F2CF0F93DB0188519C478730910508
:103F9000A0F5FC01E250F54D0C941F2906E221EE3C
:103FA00041EE6AE17CE7CD010E945E1F80E00F9147
:103FB000089507E225EE45EE6BE17CE7F4CF06E2DB
:103FC00021EE40EE68E17CE7EECF07E225EE44EE1D
:103FD00069E17CE7E8CF06E221EE42EE6CE17CE7A6
:103FE000E2CF07E225EE46EE6DE17CE7DCCF08E2AA
:103FF00021E045EE6EE17CE7D6CF15968C918823C3
:1040000019F01092C202D3CF81E0D1CF9093C802B1
:104010008093C7020895E091C702F091C8023097DB
:1040200029F00190F081E02D0995089580E0089530
:104030000E940B200895E091C702F091C8023097CA
:1040400021F00280F381E02D09950895E091C702E7
:10405000F091C802309739F022E0DC012C93068001
:10406000F781E02D09950895A3E0B0E0EAE3F0E2DE
:104070000C9466292091C5023091C6022817390791
:10408000A1F09093C6028093C502E091C702F0911F
:10409000C802309751F023E029839B838A830084F0
:1040A000F185E02DCE01019609952396E2E00C946E
:1040B0008229A3E0B0E0EFE5F0E20C9466292091BC
:1040C000C3023091C40228173907A1F09093C402AB
:1040D0008093C302E091C702F091C802309751F07B
:1040E00024E029839B838A830084F185E02DCE011F
:1040F000019609952396E2E00C94822940910401EF
:10410000509105019A012E5F3F4F485F5F4F80E05D
:104110002417350709F40895F90191919F01992316
:10412000B9F38F5FF5CF882371F0209104013091AE
:104130000501F9013296285F3F4F9191981729F0B8
:10414000E217F307D1F780E0089581E008959C011C
:10415000FC0132969FEF80E04191461751F09F3F5E
:1041600019F4411101C0982F8F5F8630A9F79F3F46
:1041700009F40895290F311D97FD3A95F9016283DD
:104180000895FC01329608962191261303C0DF01A1
:1041900011971C92E817F907B9F70895682F8091D5
:1041A0000401909105010E94A7200895682F809135
:1041B0000401909105010E94C1200895E09104013D
:1041C000F0910501329686E0DF011D928A95E9F7AC
:1041D0000895DC01FB0111969C9111978181981340
:1041E00022C012968C911297882319F0928189131C
:1041F0001AC013968C911397882319F09381891311
:1042000012C015968C911597882319F09581891302
:104210000AC014969C91992321F081E024812913EE
:1042200003C080E001C081E08170089508950E947C
:1042300016210895811106C081E08093C9020E9471
:104240001721089582E0F9CF83E08093C9020E948C
:10425000172108950E941A21089581E08093C902D0
:104260000E94172108950E942D2108950895089510
:104270000E9437210895089508950E9436210895D7
:10428000CF930E943B210E94DA110E943C21C0E0A2
:104290008C2F0E940B11892B31F4CF5FC530C1F7F1
:1042A00080E0CF91089581E0FCCF85B7806885BF1D
:1042B00085B7806885BF08951F921FB61F9211248D
:1042C0008F939F93AF93BF938091CA02811113C0C4
:1042D0008091050390910603A0910703B091080314
:1042E0004196A11DB11D8093050390930603A093F1
:1042F0000703B0930803BF91AF919F918F911F90D7
:104300001FBE1F90189580910D03843031F10E94DB
:10431000E9031092CA0288E190E020E40FB6F89415
:10432000A895809360000FBE2093600083B7817FC3
:10433000846083BF83B7816083BF7894889583B797
:104340008E7F83BF0FB6F894A89580916000886136
:1043500080936000109260000FBE08950E94CF0706
:104360000E94EE03089582E084BD93E095BD9AEF2C
:1043700097BD80936E0008952FB7F8948091050340
:1043800090910603A0910703B09108032FBF0895F1
:104390002FB7F8946091050370910603809107038D
:1043A000909108032FBF08959C014FB7F894809116
:1043B000050390910603A0910703B09108034FBF36
:1043C000821B930B089578941F921FB61F9211249D
:1043D0008F939F93AF93BF938091050390910603B2
:1043E000A0910703B09108030196A11DB11D809310
:1043F000050390930603A0930703B0930803BF91AE
:10440000AF919F918F911F901FBE1F90189581E0D3
:104410008093E00080E28093D8001092C9008FE181
:104420009EE40197F1F700C0000087E090EBDC010B
:104430008093160390931703A0931803B093190366
:1044400088E19CE00FB6F894A895809360000FBEB9
:1044500090936000FFCF88E19CE00FB6F894A89598
:10446000809360000FBE90936000FFCF8091D302D5
:10447000089508959B01BA0190910D039430E9F4D9
:104480008F708093E9009FEF8091E800915085FD47
:1044900006C085ED8A95F1F700009111F5CF809166
:1044A000E80085FF0AC050E040E0C9010E943424C2
:1044B0008091E8008E778093E800089543E050E013
:1044C000BC0182E00E943A22089546E050E0BC011F
:1044D00082E00E943A220895CF93DF93EC0148E0F6
:1044E00050E0BC0181E00E943A2288E0FE01ABEC82
:1044F000B2E001900D928A95E1F7DF91CF91089596
:1045000080910C03811109C00E94C4250E942126BC
:104510008091E20084608093E200089510920C0381
:1045200008950E942D2108956091090381E0611191
:1045300001C080E00E942421089590910D0381E044
:10454000943009F080E0609109030E942A210895C7
:1045500042E061EC81E00E94402542E261EC82E0B1
:104560000E94402590910D0381E0943009F080E095
:10457000609109030E941A21089580910F038330EE
:1045800009F461C030F48130D1F1823009F49EC069
:1045900008958A3009F48AC08B3009F46FC08930DD
:1045A00009F050C080910E03813209F04BC0809118
:1045B000120390911303029708F044C08091E80021
:1045C000877F8093E8008091E80082FF37C0909158
:1045D000F3008091F200029731F48091F100813074
:1045E00011F0863021F48091F1008093D302809104
:1045F000E8008B778093E8000E94742523C08091A7
:104600000E03813AF9F48091E800877F8093E800F7
:104610008091120390911303892B61F468E08BEC75
:1046200092E070E00E9483248091E8008B77809371
:10463000E800089560E090E080E0F3CF80910D0302
:104640008111C1CF089580910E03813AD9F78091ED
:10465000120390911303892BA9F78091E800877FBB
:104660008093E8008091E80080FFFCCF80912B01CF
:104670008093F1008091E8008E77BCCF80910E038B
:10468000813201F78091120390911303892BD1F6A7
:104690008091E800877F8093E8000E9474258091D4
:1046A000100380932B010E94CF07089580910E0381
:1046B000813241F68091E800877F8093E8000E9474
:1046C0007425809111038093D402089580910E0384
:1046D000813A09F0B7CF8091E800877F8093E800A6
:1046E0008091E80080FFFCCF8091D402C1CF84B7D5
:1046F000877F84BF0FB6F894A89580916000886189
:1047000080936000109260000FBE80E890E00FB6CA
:10471000F89480936100909361000FBE0E94332152
:1047200008950E94C4250E942126E2EEF0E08081D7
:104730008460808378940E94A028089581E291E0AB
:104740000E940620089580910D03853031F48091F8
:104750000D03853019F00E94AE2108950E94832137
:104760000E944021882399F380910B03882379F3D9
:104770000E941E240E94CF07EACF08959A0140911B
:104780001403509115030E94C6230895492F5527FD
:104790004330510519F168F44130510509F444C022
:1047A0004230510509F445C090E080E050E040E01F
:1047B00025C04132510549F142325105A9F784E43F
:1047C00090E048ED54E061157105C1F08BE790E091
:1047D0004DE554E06130710589F0E6CF99278130CD
:1047E000910581F0009729F00297F1F6E2EFF3E0EE
:1047F00002C0ECE0F4E0849190E0AF01F901518354
:1048000040830895EEEFF3E0F6CF89E090E042E2D6
:1048100054E06115710591F389E090E04BE354E0B9
:104820006130710559F3C0CF82E190E04BE454E070
:10483000E5CF8BE390E040E154E0E0CF80E189BD3B
:1048400082E189BD09B400FEFDCF8091D8008F7D43
:104850008093D8008091E00082608093E000809196
:10486000E00081FDFCCF0895AF92BF92CF92DF921E
:10487000FF920F931F93CF93DF936C01EB018A019B
:104880000E949325F82E811123C00115110539F0DE
:10489000F80180819181C81BD90BC80ED91EB12C9B
:1048A000A12C2097A9F08091E80085FD22C080917D
:1048B000E8008E778093E80001151105A1F0F8015A
:1048C00080819181A80EB91EB182A08285E0F82E68
:1048D0008F2DDF91CF911F910F91FF90DF90CF909F
:1048E000BF90AF9008950E9493258823D1F2F82EAF
:1048F000EFCFF60181916F018093F1002197FFEFD7
:10490000AF1ABF0ACECFFC0180911403909115031A
:1049100086179707A0F06115710529F49091E800BA
:104920009E779093E80090E06115710551F4911124
:1049300008C08091E80082FF34C080E00895BC0187
:10494000F2CF80910D038823C1F18530C1F18091B0
:10495000E80083FD30C08091E80082FDEACF8091BD
:10496000E80080FFE1CF8091F3002091F200382F22
:104970006115710519F02830310558F091E02830A3
:10498000310509F090E02091E8002E772093E800AF
:10499000CBCF81918093F100615071092F5F3F4F20
:1049A000E7CF80910D03882341F0853041F080915D
:1049B000E80083FFBECF81E0089582E0089583E0A0
:1049C0000895FC01809114039091150386179707B1
:1049D000A0F06115710529F48091E8008E7780932D
:1049E000E80090E06115710551F4911108C08091C3
:1049F000E80082FF35C080E00895BC01F2CF8091CD
:104A00000D038823C9F18530C9F18091E80083FD49
:104A100031C08091E80082FDEACF8091E80080FFFC
:104A2000E1CF8091F3002091F200382F61157105DC
:104A300019F02830310558F091E02830310509F09F
:104A400090E08091E8008E778093E800CBCF84914E
:104A50008093F1003196615071092F5F3F4FE6CF8F
:104A600080910D03882341F0853041F08091E8006A
:104A700083FFBDCF81E0089582E0089583E008952B
:104A8000982F973028F08F708093E90081E0089587
:104A90009093E900242F762F50E0981731F0709111
:104AA000EC002091ED005091F00021FD02C09F5FCD
:104AB000E8CF3091EB003E7F3093EB003091ED007A
:104AC0003D7F3093ED003091EB0031603093EB008F
:104AD0007093EC002093ED005093F0002091EE00D5
:104AE00027FDE5CF80E0089580910E0387FF13C076
:104AF0008091E80082FF06C08091E8008B77809368
:104B0000E80004C080910D038111F2CF08958091D7
:104B10000D038823D9F38091E80080FFF8CF8091BE
:104B2000E8008E77ECCF2091E4003091E50095E627
:104B3000A9012091EC00822F817020FF06C0809196
:104B4000E80080FF06C080E008952091E80022FD83
:104B50001AC080910D03882389F0853089F08091F7
:104B6000EB0085FD0FC02091E4003091E500421775
:104B70005307F9F29150E1F684E0089582E0089538
:104B800083E0089581E008950E9433260E943B2629
:104B9000E0EEF0E0808181608083E8EDF0E08081EC
:104BA0008F77808319BCA7EDB0E08C918E7F8C93BA
:104BB00080818F7E808310920C0308950F931F9342
:104BC000CF93DF930E9433260E943B26C8EDD0E0AE
:104BD00088818F77888388818068888388818F7DAA
:104BE000888319BC10920D031092090310920B03D5
:104BF00010920A0300EE10E0F80180818B7F808321
:104C000088818160888342E060E080E00E944025E6
:104C1000E1EEF0E080818E7F8083E2EEF0E0808143
:104C200081608083808188608083F80180818E7FAD
:104C30008083888180618883DF91CF911F910F915C
:104C40000895E8EDF0E080818F7E8083E7EDF0E06D
:104C500080818160808384E082BF81E080930C0347
:104C60000E94DE250895E8EDF0E080818E7F80834C
:104C70001092E20008951092DA001092E100089577
:104C80001F920F920FB60F9211242F933F934F93C1
:104C90005F936F937F938F939F93AF93BF93EF93A4
:104CA000FF938091E10082FF0BC08091E20082FFC0
:104CB00007C08091E1008B7F8093E1000E949F28D4
:104CC0008091DA0080FF19C08091D80080FF15C064
:104CD0008091DA008E7F8093DA008091D90080FF86
:104CE00096C080E189BD82E189BD09B400FEFDCF97
:104CF00081E080930D030E9480228091E10080FF7B
:104D000019C08091E20080FF15C08091E2008E7F83
:104D10008093E2008091E20080618093E2008091C4
:104D2000D80080628093D80019BC85E080930D0381
:104D30000E9494228091E10084FF2BC08091E200C8
:104D400084FF27C080E189BD82E189BD89B5982FA4
:104D5000917080FFFBCF8091D8008F7D8093D80029
:104D60008091E1008F7E8093E1008091E2008F7E50
:104D70008093E2008091E20081608093E200809164
:104D80000903882309F449C084E080930D030E943D
:104D90009D228091E10083FF29C08091E20083FF82
:104DA00025C08091E100877F8093E10082E08093BD
:104DB0000D03109209038091E1008E7F8093E10042
:104DC0008091E2008E7F8093E2008091E20080611A
:104DD0008093E20042E060E080E00E944025809104
:104DE000F00088608093F0000E949122FF91EF9183
:104DF000BF91AF919F918F917F916F915F914F91F3
:104E00003F912F910F900FBE0F901F90189519BCD6
:104E100010920D030E948E2270CF8091E30087FDD7
:104E200093E090930D03B3CF1F920F920FB60F92A2
:104E300011242F933F934F935F936F937F938F939F
:104E40009F93AF93BF93CF93DF93EF93FF93D09153
:104E5000E900DF708091EC00C82FC17080FDC0E8D0
:104E60001092E9008091F000877F8093F0007894A1
:104E70000E9458271092E9008091F000886080938A
:104E8000F000CD2BCF70C093E900FF91EF91DF913F
:104E9000CF91BF91AF919F918F917F916F915F91D2
:104EA0004F913F912F910F900FBE0F901F9018952B
:104EB000AAE2B0E0EEE5F7E20C9465298EE093E01B
:104EC0002091F100FC012193CF01F3E086319F078F
:104ED000B9F70E94BD228091E80083FF1EC1809136
:104EE0000E0390910F039A3008F017C1E92FF0E0FC
:104EF000EB5FF44D0C941F29803899F0823809F04B
:104F00000CC1809112038F70873008F006C1809326
:104F1000E9008091EB0085FB882780F91092E90079
:104F200006C080910A0390910B03911182609091C9
:104F3000E800977F9093E8008093F1001092F100D1
:104F40008091E8008E77E5C0882309F4D3C08230D1
:104F500009F0E3C0809110038111D6C08091120343
:104F60008F702FEF280F263008F0D7C08093E9000C
:104F70002091EB0020FFC8C0933031F48091EB000A
:104F800080628093EB00C0C09091EB0090619093A1
:104F9000EB0021E030E001C0220F8A95EAF7209370
:104FA000EA001092EA008091EB008860EACF81115C
:104FB000B4C0109110031F778091E3008078812B9B
:104FC0008093E3008091E800877F8093E8000E944F
:104FD00074258091E80080FFFCCF8091E300806819
:104FE0008093E30082E0111183E080930D0395C06C
:104FF0008058823008F091C0809110039091110385
:105000008C3D23E09207A1F583E08A838AE28983BD
:105010004FB7F894DE01139620E03EE051E2E32F13
:10502000F0E050935700E49120FF03C0E295EF7049
:105030003F5FEF708E2F90E0EA30C0F0C7968D93FF
:105040009D932F5F243159F74FBF8091E800877FF0
:105050008093E8006AE270E0CE0101960E9483240A
:105060008091E8008B778093E80057C0C096E7CF27
:105070006091120370911303AE014F5F5F4F0E9466
:10508000BE23BC01892B09F448C09091E800977FAA
:105090009093E80089819A810E94E124E1CF8038D1
:1050A000E1F58091E800877F8093E8008091090313
:1050B0008093F10045CF811130C090911003923060
:1050C00060F58091E800877F8093E8009093090362
:1050D0000E94742580910903882311F084E005C0A3
:1050E0008091E30087FDFACF81E080930D030E9459
:1050F000A82213C080911003813079F481E09330AD
:1051000009F080E080930B031092E9008091E800A1
:10511000877F8093E8000E9474258091E80083FFD8
:105120000AC08091E800877F8093E8008091EB00BF
:1051300080628093EB00AA96E3E00C9481290895A5
:10514000CF9380910D038823A1F0C091E900CF7027
:105150009091EC00892F817090FD80E8C82B10920F
:10516000E9008091E80083FD0E945827CF70C0932A
:10517000E900CF910895991B79E004C0991F961713
:1051800008F0961B881F7A95C9F78095089587FBCC
:10519000082E062687FD819567FD61950E94BB2834
:1051A0000EF4919507FC81950895AA1BBB1B51E154
:1051B00007C0AA1FBB1FA617B70710F0A61BB70B87
:1051C000881F991F5A95A9F780959095BC01CD012C
:1051D000089597FB072E16F4009407D077FD09D0A9
:1051E0000E94D52807FC05D03EF4909581959F4FED
:1051F0000895709561957F4F0895A1E21A2EAA1B1C
:10520000BB1BFD010DC0AA1FBB1FEE1FFF1FA21776
:10521000B307E407F50720F0A21BB30BE40BF50B73
:10522000661F771F881F991F1A9469F760957095FC
:10523000809590959B01AC01BD01CF010895EE0FC3
:10524000FF1F0590F491E02D09940E942D2933232E
:1052500012F48A1B9B0B0C943E29A29FB001B39FB2
:10526000C001A39F700D811D1124911DB29F700D6F
:10527000811D1124911D08950E942D29B7FF0895C5
:10528000821B930B08950E942D29A59F900DB49F1A
:10529000900DA49F800D911D11240895B7FF0C94CB
:1052A00043290E944329821B930B08952F923F921A
:1052B0004F925F926F927F928F929F92AF92BF9226
:1052C000CF92DF92EF92FF920F931F93CF93DF93D2
:1052D000CDB7DEB7CA1BDB0B0FB6F894DEBF0FBE2F
:1052E000CDBF09942A88398848885F846E847D847C
:1052F0008C849B84AA84B984C884DF80EE80FD807E
:105300000C811B81AA81B981CE0FD11D0FB6F894F3
:10531000DEBF0FBECDBFED010895002E083090F026
:10532000982F872F762F652F542F432F322F222728
:105330000850F4CF220F331F441F551F661F771FDD
:10534000881F991F0A95B2F7002D089597FD1094B4
:10535000002E083098F00850232F342F452F562F59
:10536000672F782F892F912DF4CF159497958795D6
:105370007795679557954795379527950A95AAF795
:105380001124002D08958F929F92AF92BF92CF92D9
:10539000DF92EF92FF92CF93DF93EC0168817981E6
:1053A0008A819B81611571058105910521F464E273
:1053B00079ED8BE597E02DE133EF41E050E00E947D
:1053C0009A2A49015A019B01AC01A7EAB1E40E9463
:1053D00043296B017C01ACEEB4EFA50194010E945E
:1053E0005129DC01CB018C0D9D1DAE1DBF1DB7FFEA
:1053F00003C00197A109B04888839983AA83BB831E
:105400009F77DF91CF91FF90EF90DF90CF90BF908B
:10541000AF909F908F9008950E94C329089580E0D7
:1054200091E00E94C3290895B0E0A0E080930001BC
:1054300090930101A0930201B09303010895FC0130
:105440004150504030F001900616D1F73197CF010E
:105450000895882799270895FB01DC0104C08D91E8
:105460000190801921F441505040C8F7881B990BD6
:105470000895FB01DC0102C001900D9241505040A3
:10548000D8F70895F999FECF92BD81BDF89A992772
:1054900080B50895A6E1B0E044E050E00C948C2A79
:1054A000A8E1B0E042E050E00C948C2ADC01A40FAB
:1054B000B51F4150504048F0CB01840F951F2E91ED
:1054C0000E94672A41505040D0F70895262FF9993D
:1054D000FECF92BD81BDF89A019700B4021639F053
:1054E0001FBA20BD0FB6F894FA9AF99A0FBE089524
:1054F0000396272F0E94672A0E94662A252F0E9462
:10550000672A242F0C94672A0196272F0E94672A66
:105510000C94662ADC01CB01FC01F999FECF06C090
:10552000F2BDE1BDF89A319600B40D924150504061
:10553000B8F70895052E97FB1EF400940E94B12A37
:1055400057FD07D00E94FD2807FC03D04EF40C94B1
:10555000B12A50954095309521953F4F4F4F5F4F61
:10556000089590958095709561957F4F8F4F9F4FCF
:105570000895F894FFCFCB05CB051B061B068006CC
:105580009C06FA05FA05A106120721072107DE1974
:10559000E519EC19F119F619FB19001A051A0A1A7E
:1055A0000F1A141A191A1D1A221A251A281A2B1A38
:1055B0002E1A301A331A351A561CCA1C5E1C281CA7
:1055C0002C1C621C301C661C721C3C1CC31C401C26
:1055D000761C441C7A1CA21C481C7E1CA91C4E1C58
:1055E000841C8C1C341C6A1C381C6E1C521C881CAD
:1055F000981CB21CC11C221C5A1CD11CDF1FE51FA9
:10560000CE1FD91FEB1FF11FF71F7C27A4278D2862
:0E561000A4278D28D727F8278D284F285B2840
:10561E0001000000620201010200060006060119E7
:10562E001A1B1C1D1E1F202122280850011E0A14A1
:10563E000136226C22392265225E2201E200E90047
:10564E00EA00B500B600B700CD008301CC008A0198
:10565E00920194012102230224022502260227022E
:10566E002A02B300B4006F0070009F01CB019F02AD
:10567E00A002818283E200E900EA00B500B600B71D
:10568E0000CD008301CC008A0192019401210223F6
:10569E000224022502260227022A02B300B4006F5A
:1056AE000070009F01CB019F02A002818283F0F166
:1056BE00C66766369431373534979633309091926B
:1056CE00939500010202020206060609090909095C
:1056DE00090F0F0F0F0F0F15151518191919191985
:1056EE00191919191923242525252525253A1A3C7A
:0256FE001A0090
:00000001FF
